:03000000020406F1
:0C040600787FE4F6D8FD75812002044DDB
:1007D7005F449DD5C6D3DB47DFD7CFDA9BDC9B8B46
:0C07E7000115000110000111260114058D
:0B07F400EF1FAC0670011E4C70F622D7
:10076300E4D2B77F08FE1207F4C2B77F507E0012AF
:1007730007F4D2B77F0E7E001207F4A2B77F147E70
:04078300000207F475
:10078700E4FB7D08C2B7EBC313FBD2B730B7034313
:0D07970003807F047E001207F4DDE9AF034C
:0107A4002232
:0207A500AD079E
:1007A7007B08C2B7ED1392B77F057E001207F4D21C
:0707B700B7EDC313FDDBEBFE
:0107BE002218
:1005E700E4FAFFFDFCF50FF50EF50DF50C120763A8
:1005F7007FCC1207A57F441207A51207637FCC1291
:1006070007A57FBE1207A5120787AA07120787AD9E
:1006170007EDFCEAFDE4120219E4FBFA7980783D64
:1006270012010E8F0F8E0E8D0D8C0CE4FFFE7D20B8
:100637007C41AB0FAA0EA90DA80C12010EE4FBFA20
:0A06470079A0784012001D12025243
:010651002286
:0E07BF009007D793F4F58075A0DF7F2C7E01A4
:0A07CD00EF1F70011E144E70F7229A
:0A07FF00758901758C3C758AB022E3
:100492001205E7EF24FBF50BEE34FFF50AFEAF0B76
:1004A2007C007D641203078E088F09AE0AAF0B7CB5
:1004B200007D0A120307AA06AB07AE08AF097C004B
:1004C2007D0A1202F5C3EB9FFFEA9EAB07AE0AAFAD
:1004D2000B1203078F12E50975F064A4FFC3E50B45
:1004E2009FFFAE03EE75F00AA4FEC3EF9EF513C3A1
:1004F200E512648094805005E4F512F513D3E512F9
:0C050200648094E34006751263751309D1
:01050E0022CA
:1007340075807F75A07F7FF47E011207CD75A0DFE1
:100744007FF47E011207CD75A0F77FF47E011207B6
:0F075400CD75A0FD7FF47E011207CD75A0FF22A9
:1006520075806775A07F1207C975A0FFE5131207A1
:10066200BF75A0FFE51275F00A1202D3AFF0EF33A7
:1006720095E0FE74D72FF58274073EF583E493F478
:10068200F580C28575A0F71207C975A0FFE512753E
:10069200F00A1202D3FF3395E0FE74D72FF582746D
:1006A200073EF583E493F4F58075A0FD1207C97542
:0306B200A0FF2284
:1006B500AD0775806775A07F1207C975A0FFED7539
:1006C500F00A84E5F01207BF75A0FFED75F00A8406
:1006D50093F4F58075A0F71207C975A0FFE510B46E
:1006E50001057580318008E510B402037580E57554
:0906F500A0FD1207C975A0FF2247
:1006FE00E515C3940A4005B201E4F515C3E511648E
:10070E0080F8E5126480984003200110C3E514645C
:10071E0080F8E5126480985008300105C2B6C29286
:06072E0022D2B6D2922295
:10036A001207FFD2AFD28CD2A9D288D28A120492B3
:10037A00120492E4FDFC1207340DBD00010CBC010D
:10038A00F5BD2CF220B11B7FD07E071207CD30B10C
:10039A00FD0510E4F515D200E510D394024003E4FC
:1003AA00F510E510700FC2A8C2AA120492120652E2
:1003BA001206FE80CFE5106401701ED2B6D292D228
:1003CA00A8D2AAE515C3940A4005B200E4F515308F
:1003DA0000B2AF111206B580ABE510B402A6D2B6D0
:1003EA00D292D2A8D2AAE515C3940A4005B200E473
:0C03FA00F51530008FAF141206B5808896
:03000B00020809DF
:09080900758C3C758AB0051532AE
:0300030002050FE4
:10050F00C0E0C0F0C083C082C0D075D000C000C0B2
:10051F0005C006C007C2A820B221E510B4011CAF68
:10052F00111206B530B2F81511C3E5146480F8E561
:10053F00116480985023851411801E20B21BE51082
:10054F00B40216AF141206B530B2F81514C3E51481
:10055F00648094805003751400D007D006D005D066
:0C056F0000D0D0D082D083D0F0D0E03299
:0300130002057B68
:10057B00C0E0C0F0C083C082C0D075D000C000C046
:10058B0005C006C007C2AA20B31DE510B40118AF01
:10059B00111206B530B3F80511D3E511648094E35D
:1005AB004027751163802220B31FE510B4021AAFE8
:1005BB00141206B530B3F80514D3E5116480F8E5D1
:1005CB00146480984003851114D007D006D005D051
:0C05DB0000D0D0D082D083D0F0D0E0322D
:100016000202BEE86480F8E933E83360110460F058
:10002600ED33EC337009E8FCE9FDEAFEEBFF220450
:1000360060DED3EB9FEA9EE99DE8C2E78CF0C2F74B
:1000460095F0400CE8CCF8E9CDF9EACEFAEBCFFB17
:1000560012028985D0F05804700320D5B3E80470E5
:10006600075002B2D50202C892D5EC0460F7E4CC80
:10007600C0E0C398F8603B94186008400DD0E0FBE0
:100086000202A0E4FBFAC9FC8028E830E406E4C9D1
:10009600FBE4CAFCE830E305E4C9CACBFCE8540734
:1000A6006010F8C3E913F9EA13FAEB13FBEC13FC3F
:1000B600D8F130F52FC3E49CFCEF9BFFEE9AFEEDE2
:1000C60099FDD0E0FBEF4E4D4C701222DB0302028D
:1000D600C5EC2CFCEF33FFEE33FEED33FDED30E7E0
:1000E600EB0202A0EF2BFFEE3AFEED39FDD0E0FB6E
:1000F60050130BBB00030202C8ED13FDEE13FEEF17
:0801060013FFEC13FC0202A040
:10010E00EC4D6011E8497017ED33EC3304600DE4EB
:10011E00FCFFFEFD22E933E8330470F80202BE1242
:10012E00028958046009E4CC248150062850090243
:10013E0002C82840030202C5C0E0EB4A7044B980F1
:10014E0006D0E0FB0202B4EF4E701CBD8008EBFF40
:10015E00EAFEE9FD80EBE98DF0A4FEE5F00201F781
:10016E00E9CDF9EAFEEBFFEF89F0A4FCE5F0CE89CC
:10017E00F0A42EFFE435F0CD89F0A42DFEE435F089
:10018E008067EF4E7005BD80D780C3EF8BF0A4ACB7
:10019E00F0EE8BF0A42CFCE435F0F8EF8AF0A42CF2
:1001AE00E5F038FCE433CB8DF0A42CFCE5F03BF805
:1001BE00EE8AF0A42CFCE5F038F8E433CF89F0A4F5
:1001CE002CFCE5F038CF3400CE89F0A42FFFE5F0FB
:1001DE003EFEE433C98DF0A42EFEE5F039CD8AF053
:1001EE00A42FFFE5F03EFEE43DFD33D0E0FB5007CB
:1001FE000BBB000F0202C8EC2CFCEF33FFEE33FEFC
:06020E00ED33FD0202A029
:1002140075F020800E75F010800575F0087D007E65
:10022400007F003392D530D50312035CEC334010C9
:10023400EF33FFEE33FEED33FDEC33FCD5F0ED226E
:0E024400E5F0247EA2D513CC92E7CDCEFF22AA
:10025200EDD2E7CD33EC3392D524814006E4FFFEA4
:10026200FDFC22FCE4CFCECDCC24E0501174FF8003
:10027200EDC3CC13CCCD13CDCE13CECF13CF0470A0
:07028200F030D5DE02035C41
:10028900E9D2E7C933E833F892D5EDD2E7CD33ECBB
:0702990033FC5002B2D52234
:1002A000EC30E7100FBF000C0EBE00080DBD0004BF
:1002B0000BEB6014A2D5EB13FCED92E7FD2274FF6B
:1002C000FCFDFEFF22E480F8A2D574FF13FC7D80C4
:0302D000E480EFD8
:1004120002036AE493A3F8E493A34003F68001F293
:1004220008DFF48029E493A3F85407240CC8C333EB
:10043200C4540F4420C8834004F456800146F6DFBA
:10044200E4800B01020408102040809007E7E47E5C
:10045200019360BCA3FF543F30E509541FFEE493AF
:10046200A360010ECF54C025E060A840B8E493A376
:10047200FAE493A3F8E493A3C8C582C8CAC583CAA1
:10048200F0A3C8C582C8CAC583CADFE9DEE780BE59
:0107F3000005
:1002D300C2D530F707B2D563F0FF05F030E70CB2B3
:1002E300D5F4048463F0FF05F080018430D502F473
:0202F3000422E3
:1002F500EF8DF0A4A8F0CF8CF0A428CE8DF0A42E1D
:02030500FE22D6
:10030700BC000BBE0029EF8DF084FFADF022E4CCDA
:10031700F875F008EF2FFFEE33FEEC33FCEE9DECA3
:10032700984005FCEE9DFE0FD5F0E9E4CEFD22EDE9
:10033700F8F5F0EE8420D21CFEADF075F008EF2F33
:10034700FFED33FD4007985006D5F0F222C398FD24
:050357000FD5F0EA22C1
:0E035C00C3E49FFFE49EFEE49DFDE49CFC22B2
:00000001FF
