:030000000201609A
:0C016000787FE4F6D8FD75811C0201A731
:1002C000543A00483A00464952452100534D4F4B9D
:0D02D000592100535452414E474552210020
:0F03F80001140101160101170101150101130183
:1003C200D2A27FC87E0012038820A2037F00227F70
:0203D200012206
:10039C0020A30D7FC87E0012038820A3037F0022B8
:0303AC007F0122AC
:1002FA007F5AE4FEB2A1E4FDEDC39F50030D80F8DE
:0B030A000EBEC8F07FC87E0002038812
:1003AF0030B70D7FC87E0012038830B7037F00225D
:0303BF007F012299
:100003001203601204287F4C7E041203887BFF7A5C
:100013000279C0E4FDFF1202987BFF7A0279C3E400
:0F002300FD7F091202981201EC8F14E51470177B
:100032001200CC8F16E516700EF5191202FA051988
:07004200E519C3940440F42A
:090049001203C28F17E5177021A4
:100052007BFF7A0279C67D017F02120298E4F519CC
:100062001202FA0519E519C3940340F47F01120440
:010072000885
:0800730012039C8F1520A3214C
:10007B007BFF7A0279CC7D017F02120298E4F5199D
:10008B001202FA0519E519C3940240F47F01120418
:01009B00085C
:0C009C001203AF8F13E513600302001085
:1000A8007BFF7A0279D37D017F02120298E4F51969
:1000B8001202FA0519E519C3940540F47F011204E8
:0100C800082F
:0300C90002001022
:1003D4007580FFC2A6D2A5D2A7AF80C2A7EF20E73F
:0103E400F622
:0103E50022F5
:10040800AE071203D4C2A6C2A58E80D2A7C2A72265
:10041800AE071203D4D2A6C2A58E80D2A7C2A72245
:1003E600ED7004AC078004EF2440FCEC4480FF026F
:0203F6000408F9
:100298008B1A8A1B891C1203E6AB1AAA1BA91C120B
:1002A80003306013051CE51C7002051B14F91203CA
:0802B80030FF12041880E2225D
:100360007F381204087F0C1204087F061204087FED
:04037000010204087A
:10037400C2A07F197E00120388D2A0120431120495
:04038400310204310D
:10023700E4FF30A00BEFC3946450050F000080F279
:10024700EFC3945040037F0122E4FF20A00BEFC3CC
:10025700946450050F000080F2EFC3945040037F71
:0402670001227F00F1
:01026B002270
:10026C00E4FF30A00BEFC3946450050F000080F244
:10027C00E4FF20A00BEFC3946450050F000080F244
:0B028C0012034930A0037F01227F0015
:010297002244
:1002DD00E4F51BF51AE51B25E0F51B12026CEF4248
:0C02ED001B051AE51AC3940840EBAF1B78
:0102F90022E2
:1001EC00120374120237EF703C1202DD8F111202EF
:1001FC00DD8F121202DD8F0A1202DD8F0B1202DD6F
:10020C008F0DD2A0E50A250B25112512F50EB50D83
:10021C001185110F851210850A08850B09850D0CA7
:0B022C0080067F01227F02227F00225B
:09042800D2A01203741202372263
:1000CC001201ECE4FD7F021203E6E50875F00A84E8
:1000DC0075F00A84E5F02430FF120418E50875F079
:1000EC000A84E5F02430FF1204187F2E120418E560
:1000FC000975F00A84E5F02430FF1204187F4312CE
:10010C000418E4FD7F0B1203E6E50F75F00A847505
:10011C00F00A84E5F02430FF120418E50F75F00A9C
:10012C0084E5F02430FF1204187F2E120418E51019
:10013C0075F00A84E5F02430FF1204187F251204B0
:10014C0018E508D394325006E50F945A40037F000B
:04015C00227F0122DB
:100315007F017E007D707C00ED1D70011CED4C7031
:0A032500F7EF1F70011EEF4E70EAA3
:01032F0022AB
:10038800AB07AA06EB1BAE0270011A4E60051203FA
:040398001580F122B9
:0704310000000000000022A2
:1003490000000000000000000000000000000000A4
:07035900000000000000227B
:10016C00020003E493A3F8E493A34003F68001F2A6
:10017C0008DFF48029E493A3F85407240CC8C33394
:10018C00C4540F4420C8834004F456800146F6DF63
:10019C00E4800B01020408102040809003F8E47EF8
:1001AC00019360BCA3FF543F30E509541FFEE49358
:1001BC00A360010ECF54C025E060A840B8E493A31F
:1001CC00FAE493A3F8E493A3C8C582C8CAC583CA4A
:1001DC00F0A3C8C582C8CAC583CADFE9DEE780BE02
:0104070000F4
:10033000BB010689828A83E0225002E722BBFE02CB
:09034000E32289828A83E49322FE
:00000001FF
