:0300000002098D65
:0C098D00787FE4F6D8FD7581470209D49C
:100F2D0053595354454D20496E6974506C65617326
:060F3D0065205761697494
:100C6700014200013A01013B010143014100090A28
:100C770041000A0A4100000A4200050190420007AC
:0C0C87000064420001003C420003000A2F
:0F0F8E00EF7F08A2E09283D282C282C313DFF406
:010F9D002231
:0F0F9E007F08C313A28392E7D282C282DFF4FFDF
:010FAD002221
:100F5700AE05C284C282D284120F8EAF06120F8EE4
:030F6700C284221F
:100F6A00C284C282D284EF4401FF120F8E120F9EF6
:020F7A00C2842F
:010F7C002252
:0F0FBE003000047D108002E4FD7F8E120F572259
:100EC400AC05AB07C200120FBEAF03EC75F00A8489
:100ED400C454F0FEEC75F00A84E5F04EFD020F57A1
:100393007F80120F6AEF5470C4540F75F00AA4FEE5
:1003A300EF540F2E1201E57F82120F6AEF5470C4CF
:1003B300540F75F00AA4FEEF540F2E9000011201A2
:1003C300F77F84120F6AEF5470C4540F75F00AA4B8
:1003D300FEEF540F2E9000021201F77F86120F6A70
:1003E300EF5470C4540F75F00AA4FEEF540F2E900F
:1003F30000041201F77F8A120F6AEF5470C4540F7E
:1004030075F00AA4FEEF540F2E9000031201F77F3C
:1004130088120F6AEF5470C4540F75F00AA4FEEFEC
:10042300540F2E9000051201F77F8C120F6AEF54C0
:1004330070C4540F75F00AA4FEEF540F2E900006FB
:030443000201F7BC
:1007E1009000021201B875F00A849000101201F70E
:1007F1009000021201B875F00A84900011E5F01220
:1008010001F7900012743A1201F79000011201B839
:1008110075F00A849000131201F79000011201B8DB
:1008210075F00A84900014E5F01201F79000157438
:100831003A1201F712019FFF75F00A849000161217
:1008410001F7EF75F00A84900017E5F01201F790B7
:10085100000FE41201F79000021201B8900009F0B4
:100861009000011201B890000AF012019F9000005F
:02087100F02273
:100F7D007F80120F6AEF30E707E4FD7F80120EC409
:010F8D002241
:100C0A007B007A0079211203931207E185313C8532
:100C1A00323D85343E85353F8537408538417F04EE
:100C2A00120003E53C2430FF120E82E53D2430FF1A
:100C3A00120E827F3A120E82E53E2430FF120E8295
:100C4A00E53F2430FF120E827F3A120E82E54024DD
:0D0C5A0030FF120E82E5412430FF020E82B1
:100F1700EF24FE600A14600A24027009020A19020B
:060F27000873120900220C
:0F0FCD00EF24FE600604700602058D1206222234
:0F0FDC00EF24FE60060470060206B712074C22CF
:1004F300D280120E9E120F7D7F02120003E4900041
:100503000BF090000BE0FFC36480948B501DEF331E
:1005130095E0FE742D2FF582740F3EF583E493FF6F
:10052300120E8290000BE004F080D77F2A120003A2
:10053300E490000BF090000BE0FFC36480948B50B9
:100543001DEF3395E0FE74382FF582740F3EF5836B
:10055300E493FF120E8290000BE004F080D77FC477
:100563007E09120D01120FAEE54224FE600E1460E7
:1005730012240270F3AF3A120F1780ECAF3B120F45
:0A058300CD80E5AF43120FDC80DEEF
:100B2100534554202054454D503A005245414C20E4
:100B310054454D503A005345542054494D452048A1
:100B41004F5552005345542054494D45204D494E6F
:100B5100555445005345542054494D452053454370
:100B61004F4E44005345542054656D7020486967C9
:100B710068005345542054656D70204C6F770053C5
:100B81004554205248204869676800534554205213
:060B910048204C6F7700C4
:0C0C9300410018004100190041001A0047
:100D0100E4900010F0A3F0C3900011E09F90001058
:100D1100E09E5031E4900012F0A3F0900013E00443
:100D2100F07006900012E004F0900012E07004A34D
:100D3100E064FD70E6900011E004F070CA900010CC
:050D4100E004F080C297
:010D4600228A
:100F4300C2B5D2B6D2B700000000E5A0339201C209
:030F5300B7A20141
:010F56002278
:100EE400120F4340FBC2B5C2B6C2B700008FA000C8
:0C0EF400000000D2B700000000C2B722CE
:07000300EF4480FF020EE450
:100E6B00E0FEA3E0FF7C007D0A12022B7C007D0AD2
:070E7B0012022BED2430FFF1
:100E8200120F4340FBD2B5C2B6C2B700008FA0001A
:0C0E9200000000D2B700000000C2B72230
:100E9E007F38120EE47F017E00120D017F0C120EC0
:100EAE00E47F01120D017F06120EE47F01120D0187
:060EBE00120EE4020D011A
:0802B6008E1D8F1EAB05AA048A
:1002BE00E4FF120003E4FEEEFD3395E0FC74212D05
:1002CE00F582740B3CF583E493FF120E820EBE0A88
:1002DE00E6C3E51D6480948050127F2D120E82C3FA
:1002EE00E4951EF51EE4951DF51D80057F20120E6A
:1002FE0082AE1DAF1E7C007D6412022BEF2430FFF8
:10030E00120E82AE1DAF1E120E707F2E120E82AE18
:10031E001DAF1E120E777F43120E827F281200032E
:10032E00E4FEEEFD3395E0FC742C2DF582740B3C4F
:10033E00F583E493FF120E820EBE0AE6C3EA6480D2
:10034E009480500E7F2D120E82C3E49BFBE49AFA2A
:10035E0080057F20120E827C007D64AF03AE0212F8
:10036E00022BEF2430FF120E827C007D0AAF03AE0B
:10037E0002120E747F2E120E82AE02AF03120E7791
:05038E007F43020E8216
:100AA3007F2C120003900009E0FF75F00A12017D0C
:100AB3002430FF120E82900009E0FF75F00A120144
:100AC3007DAFF0EF2430FF120E827F3A120E829038
:100AD300000AE0FF75F00A12017D2430FF120E8236
:100AE30090000AE0FF75F00A12017DAFF0EF2430A9
:100AF300FF120E827F3A120E82900000E0FF75F023
:100B03000A12017D2430FF120E82900000E0FF756F
:0E0B1300F00A12017DAFF0EF2430FF020E82D7
:100DFF007F2C120003900005E0FEA3E0FF7C007D36
:100E0F006412022BEF2430FF120E82900005120E97
:100E1F006B7F2E120E82900005E0FEA3E0FF120EF4
:060E2F00777F43020E82F2
:100E35007F2C120003900007E0FEA3E0FF7C007DFD
:100E45006412022BEF2430FF120E82900007120E5F
:100E55006B7F2E120E82900007E0FEA3E0FF120EBC
:060E6500777F43020E82BC
:100D87007F2C120003900001E0FEA3E0FF7C007DB2
:100D97000A12022BEF2430FF120E82900001E0FEB0
:100DA700A3E0FF120E777F25120E827F20120E829C
:0C0DB700120E82120E82120E82020E82B8
:100DC3007F2C120003900003E0FEA3E0FF7C007D74
:100DD3000A12022BEF2430FF120E82900003E0FE72
:100DE300A3E0FF120E777F25120E827F20120E8260
:0C0DF300120E82120E82120E82020E827C
:100CB500E4FF30910C309009309206309303209474
:100CC500382091053091FD7F012090053090FD7F02
:100CD500022092053092FD7F032093053093FD7F1E
:100CE500042094053094FD7F053091FD3090FA3055
:0B0CF50092F73093F43094F1227F005E
:010D000022D0
:100A1900E4FF120003E490000CF090000CE0FFC327
:100A29006480948D501DEF3395E0FE74372FF58265
:100A3900740B3EF583E493FF120E8290000CE004E0
:100A4900F080D7120CB5EF24FE600624FE601780F3
:100A59002D900009E0FFC36480949740047F0080D3
:100A690018EF04FF8013900009E0FFC364809481AC
:100A790050047F178003EF14FF900009EFF09000F6
:100A890018E0FF900009E0FE6F600E900018EEF08C
:090A9900FD7F84120EC4120AA3B1
:010AA2002231
:10087300E4FF120003E490000CF090000CE0FFC3CF
:100883006480948F501DEF3395E0FE74452FF582FD
:10089300740B3EF583E493FF120E8290000CE00488
:1008A300F080D7120CB5EF24FE600624FE60198099
:1008B3003190000AE0FFC3648094BB40067E007F52
:1008C30000801AEF04FF801590000AE0FFC36480E4
:1008D300948150067E3B7F3B8003EF14FF90000A18
:1008E300EFF0900019E0FF90000AE0FD6F600D90BB
:0C08F3000019EDF07F82120EC4120AA35F
:0108FF0022D6
:10090000E4FF120003E490000CF090000CE0FFC341
:100910006480948F501DEF3395E0FE74552FF5825F
:10092000740B3EF583E493FF120E8290000CE004FA
:10093000F080D7120CB5EF24FE600624FE6019800B
:1009400031900000E0FFC3648094BB40067E007FCE
:1009500000801AEF04FF8015900000E0FFC3648060
:10096000948150067E3B7F3B8003EF14FF90000094
:10097000EFF090001AE0FF900000E0FD6F600D9036
:0C098000001AEDF07F80120EC4120AA3D2
:01098C002248
:10058D00E4FF120003E490000CF090000CE0FFC3B8
:10059D006480948D501DEF3395E0FE74652FF582C8
:1005AD00740B3EF583E493FF120E8290000CE00471
:1005BD00F080D7120CB5EF24FE600624FE60278074
:1005CD0051900005E0FEA3E0FFC394D4EE64809447
:1005DD0083400A7C037DD47E037FD4802DEF240AD3
:1005ED00FFE43EFE8024900005E0FEA3E0FFC394EF
:1005FD001EEE64809480500A7C007D1E7E007F1E5E
:10060D008008EF24F6FFEE34FFFE900005EEF0A318
:05061D00EFF0020DFFEB
:10062200E4FF120003E490000CF090000CE0FFC322
:100632006480948C501DEF3395E0FE74732FF58225
:10064200740B3EF583E493FF120E8290000CE004DB
:10065200F080D7120CB5EF24FE600624FE602780DE
:1006620051900007E0FEA3E0FFC394D4EE648094AF
:1006720083400A7C037DD47E037FD4802DEF240A3D
:10068200FFE43EFE8024900007E0FEA3E0FFC39457
:100692001EEE64809480500A7C007D1E7E007F1EC8
:1006A2008008EF24F6FFEE34FFFE900007EEF0A381
:0506B200EFF0020E351F
:1006B700E4FF120003E490000CF090000CE0FFC38D
:1006C7006480948B501DEF3395E0FE74802FF58284
:1006D700740B3EF583E493FF120E8290000CE00446
:1006E700F080D7120CB5EF24FE600624FE60278049
:1006F70051900001E0FEA3E0FFC39462EE64809492
:1007070080400A7C007D627E007F62802DEF24019D
:10071700FFE43EFE8024900001E0FEA3E0FFC394C7
:1007270003EE64809480500A7C007D037E007F0383
:100737008008EF24FFFFEE34FFFE900001EEF0A3E8
:05074700EFF0020D8738
:10074C00E4FF120003E490000CF090000CE0FFC3F7
:10075C006480948A501DEF3395E0FE748C2FF582E3
:10076C00740B3EF583E493FF120E8290000CE004B0
:10077C00F080D7120CB5EF24FE600624FE602780B3
:10078C0051900003E0FEA3E0FFC39462EE648094FA
:10079C0080400A7C007D627E007F62802DEF240108
:1007AC00FFE43EFE8024900003E0FEA3E0FFC39430
:1007BC0003EE64809480500A7C007D037E007F03EE
:1007CC008008EF24FFFFEE34FFFE900003EEF0A351
:0507DC00EFF0020DC367
:0D0C9F004200160019420014001E0108005A
:100F0000D3EF9400EE9400400DE4FD0DBD1BFCEF0B
:060F10001F70ED1E80EAD7
:010F160022B8
:0C0FEB00152115211521152115211521B6
:010FF70022D7
:100D4700E4FF751102208107AE110511EE70F6124E
:100D57000FEB120FEBE4F5163081037516017511D1
:100D670002308107AE110511EE70F6E511640160DE
:0F0D77000EE51C25E0F51CE516421C0FBF08C356
:010D8600224A
:100B9700C2817FB47E00120F00D281120FEB120FB9
:100BA700EB120FEB120FEBD2812081567511022049
:100BB7008107AF110511EF70F6751102308107AF8C
:100BC700110511EF70F6120D47851C19120D478597
:100BD7001C1A120D47851C0B120D47851C0C120D94
:100BE70047851C15D281E50B250C2519251AF51605
:100BF700B5150F851917851A18850B09850C0A85F0
:030C0700151322A0
:10044600120B97900016E4F0A3E509F0900014E46F
:10045600F0A3E517F07F281200037F54120E827F67
:100466003A120E82E50975F00A8475F00A84E5F001
:100476002430FF120E82E50975F00A84E5F0243077
:10048600FF120E827F2E120E82E50A75F00A84E5AF
:10049600F02430FF120E827F43120E827F20120E4E
:1004A600827F52120E827F48120E827F3A120E828D
:1004B600E51775F00A8475F00A84E5F02430FF121A
:1004C6000E82E51775F00A84E5F02430FF120E82DD
:1004D6007F2E120E82E51875F00A84E5F02430FFAF
:0D04E600120E827F25120E827F20020E82F0
:080CAC000244000002460000B2
:100FAE00758901758CD8758AF0D2AFD2A9D28C22F0
:03000B0002000EE2
:10000E00C0E0C0F0C083C082C0D075D000C000C0B8
:0D001E0001C002C003C004C005C006C00739
:10002B00758CD8758AF00545E54570020544C39477
:10003B0064E544940050030200DA754400754500F2
:10004B00E54260030200D4900016E0FEA3E0FF7CC3
:10005B00007D0A120219C3900006E09FEE6480F83F
:10006B00900005E06480984047D3900008E09FEE35
:10007B006480F8900007E06480985034900001E0B1
:10008B00FEA3E0FF900014E0FCA3E0FD9FEE648074
:10009B00F8EC6480985019900003E0FEA3E0FFC3D6
:1000AB00ED9FEE6480F8EC6480984004D28080026F
:1000BB00C280E54745467009120E9E75460075478E
:1000CB0001120C0A1204468006754600754700742F
:1000DB00B5440C70030201622091223091FDC3E5FF
:1000EB00426480948340047F008004E54204FF8FC8
:1000FB0042753A01753B01754301120E9E20941B0C
:10010B00E542B401163094FDD3E53A648094834004
:10011B00047F008004E53A04FF8F3A20941BE542EC
:10012B00B402163094FDD3E53B6480948240047F87
:10013B00008004E53B04FF8F3B20941BE542B40396
:10014B00163094FDD3E5436480948240047F008095
:07015B0004E54304FF8F439C
:10016200D007D006D005D004D003D002D001D000F1
:0B017200D0D0D082D083D0F0D0E0329B
:100999000204F3E493A3F8E493A34003F68001F27D
:1009A90008DFF48029E493A3F85407240CC8C3335F
:1009B900C4540F4420C8834004F456800146F6DF2E
:1009C900E4800B0102040810204080900C67E47E4B
:1009D900019360BCA3FF543F30E509541FFEE49323
:1009E900A360010ECF54C025E060A840B8E493A3EA
:1009F900FAE493A3F8E493A3C8C582C8CAC583CA15
:100A0900F0A3C8C582C8CAC583CADFE9DEE780BECC
:010CB400003F
:10017D00C2D530F707B2D563F0FF05F030E70CB20A
:10018D00D5F4048463F0FF05F080018430D502F4CA
:02019D0004223A
:10019F00BB010689828A83E0225002E722BBFE025E
:0901AF00E32289828A83E4932291
:1001B800BB010CE58229F582E5833AF583E02250FC
:1001C80006E92582F8E622BBFE06E92582F8E22246
:0D01D800E58229F582E5833AF583E4932260
:1001E500BB010689828A83F0225002F722BBFE01F9
:0201F500F322F3
:1001F700F8BB010DE58229F582E5833AF583E8F03E
:10020700225006E92582C8F622BBFE05E92582C8E9
:02021700F222D1
:10021900EF8DF0A4A8F0CF8CF0A428CE8DF0A42EF9
:02022900FE22B3
:10022B00C2D5EC30E709B2D5E4C39DFDE49CFCEEEE
:10023B0030E715B2D5E4C39FFFE49EFE120261C303
:10024B00E49DFDE49CFC800312026130D507C3E4FE
:06025B009FFFE49EFE225D
:10026100BC000BBE0029EF8DF084FFADF022E4CC81
:10027100F875F008EF2FFFEE33FEEC33FCEE9DEC4A
:10028100984005FCEE9DFE0FD5F0E9E4CEFD22ED90
:10029100F8F5F0EE8420D21CFEADF075F008EF2FDA
:1002A100FFED33FD4007985006D5F0F222C398FDCB
:0502B1000FD5F0EA2268
:00000001FF
