:1003E2003F065B4F666D7D077F6F777C395E797163
:10000300E4F593F594F591759201F595759601F5DF
:10001300B1F5B2F5B3F5B4F5C9F5CAF5CBF5CCF541
:10002300E1F5E2751C00751D00751E097B007A0061
:10003300790B1202AB8F08E50870E8E50BFB7A0039
:100043007C007D0AFF7E001202008E118F127C005D
:100053007D0AAF037E001202008C138D14AF0C7E59
:10006300007C007D0A1202008E158F16E475106461
:10007300F50FF50EF50DE50BD394325006E5099413
:100083005A4004D2A48002C2A4780D74FF1202382D
:10009300EC4D4E4F6067D2A39003EEE493F4F590DA
:1000A3007F0A7E001203BCC2A3D2A074E22512F51C
:1000B3008274033511F583E493F4F590120402C2BC
:1000C300A0D2A174E22514F58274033513F583E4F9
:1000D300932480F4F5907F0A7E001203BCC2A1D260
:1000E300A274E22516F58274033515F583E493F4BF
:1000F300F5907F0A7E001203BCC2A2808CE509FB47
:100103007A007C007D0AFF7E001202008E118F129E
:100113007C007D0AAF037E001202008C138D14E570
:100123000AFB7C007D0AFF7E001202008E158F16EB
:100133007C007D0AAF037E001202008C178D18E449
:10014300751064F50FF50EF50D780D74FF12023876
:10015300EC4D4E4F7003020026D2A074E22512F537
:100163008274033511F583E493F4F590120402C20B
:10017300A0D2A174E22514F58274033513F583E448
:10018300932480F4F5907F0A7E001203BCC2A1D2AF
:10019300A274E22516F58274033515F583E493F40E
:1001A300F5907F0A7E001203BCC2A2D2A374E2259B
:1001B30018F58274033517F583E493F4F5907F0AF9
:0901C3007E001203BCC2A380807F
:1003D000C2807F147E001203BCD2807F1E7E00028A
:0203E00003F226
:10032C00E4F52530800EE525C394645007052512AD
:10033C00042880EFE525C3945040037F0122E4F5A7
:10034C002520800EE525C39464500705251204284A
:0E035C0080EFE525C3945040037F01227F000F
:01036A002270
:10036B00E4F52730800EE527C39464500705271268
:10037B00042880EFE4F52720800EE527C394645012
:10038B0007052712042880EF1204233080037F0116
:03039B00227F00BE
:01039E00223C
:10039F00E4F526F525E52625E0F52612036BEF4259
:0C03AF00260525E525C3940840EBAF2689
:0103BB00221F
:0602AB008B198A1A891B61
:1002B1001203D012032CEF706CF52412039F741FEC
:1002C1002524F8A6070524E524C3940540EDE51F80
:1002D1002520FFE433FE7C00EF2521FFEC3EFEEFFD
:1002E1002522FFEC3EFEEFB52338ECB50634AB1CFE
:1002F100AA1DA91EE51F1201CCAB1CAA1DA91E90A7
:100301000001E5201201DEAB19AA1AA91BE5211291
:1003110001CCAB19AA1AA91B900001E5221201DE3A
:0A03210080067F02227F01227F0088
:01032B0022AF
:09041A00D2801203D012032C223F
:0404280000000022AE
:0B0402000000007F0B7EBEDEFEDFFC72
:01040D0022CC
:1003F200EF1FAC0670011E4C600512042880F1222A
:1003BC00AD07AC06ED1DAE0470011C4E60051204B9
:0403CC000280F12298
:040423007F6CDFFE0D
:0104270022B2
:0300000002040EE9
:0C040E00787FE4F6D8FD7581270200031A
:1001CC00BB010689828A83F0225002F722BBFE0112
:0201DC00F3220C
:1001DE00F8BB010DE58229F582E5833AF583E8F057
:1001EE00225006E92582C8F622BBFE05E92582C803
:0201FE00F222EB
:10020000C2D5EC30E709B2D5E4C39DFDE49CFCEE19
:1002100030E715B2D5E4C39FFFE49EFE120256C339
:10022000E49DFDE49CFC800312025630D507C3E434
:060230009FFFE49EFE2288
:100236007401FF3395E0FEFDFC080808E6CF2FF6B3
:1002460018E6CE3EF618E6CD3DF618E6CC3CF6228C
:10025600BC000BBE0029EF8DF084FFADF022E4CC8C
:10026600F875F008EF2FFFEE33FEEC33FCEE9DEC55
:10027600984005FCEE9DFE0FD5F0E9E4CEFD22ED9B
:10028600F8F5F0EE8420D21CFEADF075F008EF2FE5
:10029600FFED33FD4007985006D5F0F222C398FDD6
:0502A6000FD5F0EA2273
:00000001FF
