:1007EB005F449DD5C6D3DB47DFD7CFDA9BDC9B8B32
:0C07FB0001170001120001132601160571
:0B080800EF1FAC0670011E4C70F622C2
:10077000E4FDD2B77F08FE120808C2B77F507E00A2
:10078000120808D2B77F0E7E00120808A2B7E43321
:08079000FD7F147E0002080841
:10079800E4FDFB7D08C2B7EBC313FBD2B730B70348
:0E07A8004303807F047E00120808DDE9AF03E2
:0107B6002220
:0207B700AD078C
:1007B900E4FB7B08C2B7ED1392B77F057E001208F0
:0907C90008D2B7EDC313FDDBEB10
:0107D2002204
:10049200E4F9FAF50CF50DF511F510F50FF50E125C
:1004A20007707FCC1207B77F441207B71207707F1D
:1004B200CC1207B77FBE1207B7120798A907120717
:1004C20098AA07750C008F0DE50D750D00F50CAFA0
:1004D20001EF420DE4AC0CAD0D120219E4FBFA7906
:1004E20080783D12010E8F118E108D0F8C0EE4FF5D
:1004F200FE7D207C41AB11AA10A90FA80E12010E9D
:10050200E4FBFAF9783F12001D1202528E0C8F0D95
:0105120022C6
:0E07D3009007EB93F4F58075A0DF7F647E0045
:0A07E100EF1F70011E144E70F72286
:0A081300758901758C3C758AB022CE
:100513001204928E0A8F0B7C007D641203078E08EF
:100523008F09AE0AAF0B7C007D0A120307AA06AB44
:1005330007AE08AF097C007D0A1202F5C3EB9FFFEB
:10054300EA9EAB07AE0AAF0B1203078F14E50975DA
:10055300F064A4FFC3E50B9FFFAE03EE75F00AA49E
:10056300FEC3EF9EF515C3E514648094805005E443
:10057300F514F515D3E514648094E340067514630C
:03058300751509E2
:010586002252
:1007410075807F75A07F7FC87E001207E175A0DFED
:100751007FC87E001207E175A0F77FC87E001207EF
:0F076100E175A0FD7FC87E001207E175A0FF22A1
:10065F0075806775A07F1207DD75A0FFE51512077E
:10066F00D375A0FFE51475F00A1202D3AFF0EF3384
:10067F0095E0FE74EB2FF58274073EF583E493F457
:10068F00F580C28575A0F71207DD75A0FFE514751B
:10069F00F00A1202D3FF3395E0FE74EB2FF582744C
:1006AF00073EF583E493F4F58075A0FD1207DD7521
:0306BF00A0FF2277
:1006C200AD0775806775A07F1207DD75A0FFED7518
:1006D200F00A84E5F01207D375A0FFED75F00A84E5
:1006E20093F4F58075A0F71207DD75A0FFE512B44B
:1006F20001057580318008E512B402037580E57545
:09070200A0FD1207DD75A0FF2225
:10070B00E517C3940A4005B201E4F517C3E513647A
:10071B0080F8E5146480984003200110C3E516644B
:10072B0080F8E5146480985008300105C2B6C29277
:06073B0022D2B6D2922288
:10036A00120813D2AFD28CD2A9D288D28A1205131C
:10037A00120513E4FDFC1207410DBD00010CBC017E
:10038A00F5BD2CF220B11B7FD07E071207E130B1F8
:10039A00FD0512E4F517D200E512D394024003E4F6
:1003AA00F512E512700FC2A8C2AA12051312065F4F
:1003BA0012070B80CFE5126401701ED2B6D292D218
:1003CA00A8D2AAE517C3940A4005B200E4F517308B
:1003DA0000B2AF131206C280ABE512B402A6D2B6BF
:1003EA00D292D2A8D2AAE517C3940A4005B200E471
:0C03FA00F51730008FAF161206C2808885
:03000B0002081DCB
:09081D00758C3C758AB005173298
:030003000205876C
:10058700C0E0C0F0C083C082C0D075D000C000C03A
:1005970005C006C007C2A820B221E512B4011CAFEE
:1005A700131206C230B2F81513C3E5166480F8E5D6
:1005B700136480985023851613801E20B21BE51202
:1005C700B40216AF161206C230B2F81516C3E516F6
:1005D700648094805003751600D007D006D005D0EC
:0C05E70000D0D0D082D083D0F0D0E03221
:030013000205F3F0
:1005F300C0E0C0F0C083C082C0D075D000C000C0CE
:1006030005C006C007C2AA20B31DE512B40118AF86
:10061300131206C230B3F80513D3E513648094E3D1
:100623004027751363802220B31FE512B4021AAF6B
:10063300161206C230B3F80516D3E5136480F8E545
:10064300166480984003851316D007D006D005D0D2
:0C06530000D0D0D082D083D0F0D0E032B4
:100016000202BEE86480F8E933E83360110460F058
:10002600ED33EC337009E8FCE9FDEAFEEBFF220450
:1000360060DED3EB9FEA9EE99DE8C2E78CF0C2F74B
:1000460095F0400CE8CCF8E9CDF9EACEFAEBCFFB17
:1000560012028985D0F05804700320D5B3E80470E5
:10006600075002B2D50202C892D5EC0460F7E4CC80
:10007600C0E0C398F8603B94186008400DD0E0FBE0
:100086000202A0E4FBFAC9FC8028E830E406E4C9D1
:10009600FBE4CAFCE830E305E4C9CACBFCE8540734
:1000A6006010F8C3E913F9EA13FAEB13FBEC13FC3F
:1000B600D8F130F52FC3E49CFCEF9BFFEE9AFEEDE2
:1000C60099FDD0E0FBEF4E4D4C701222DB0302028D
:1000D600C5EC2CFCEF33FFEE33FEED33FDED30E7E0
:1000E600EB0202A0EF2BFFEE3AFEED39FDD0E0FB6E
:1000F60050130BBB00030202C8ED13FDEE13FEEF17
:0801060013FFEC13FC0202A040
:10010E00EC4D6011E8497017ED33EC3304600DE4EB
:10011E00FCFFFEFD22E933E8330470F80202BE1242
:10012E00028958046009E4CC248150062850090243
:10013E0002C82840030202C5C0E0EB4A7044B980F1
:10014E0006D0E0FB0202B4EF4E701CBD8008EBFF40
:10015E00EAFEE9FD80EBE98DF0A4FEE5F00201F781
:10016E00E9CDF9EAFEEBFFEF89F0A4FCE5F0CE89CC
:10017E00F0A42EFFE435F0CD89F0A42DFEE435F089
:10018E008067EF4E7005BD80D780C3EF8BF0A4ACB7
:10019E00F0EE8BF0A42CFCE435F0F8EF8AF0A42CF2
:1001AE00E5F038FCE433CB8DF0A42CFCE5F03BF805
:1001BE00EE8AF0A42CFCE5F038F8E433CF89F0A4F5
:1001CE002CFCE5F038CF3400CE89F0A42FFFE5F0FB
:1001DE003EFEE433C98DF0A42EFEE5F039CD8AF053
:1001EE00A42FFFE5F03EFEE43DFD33D0E0FB5007CB
:1001FE000BBB000F0202C8EC2CFCEF33FFEE33FEFC
:06020E00ED33FD0202A029
:1002140075F020800E75F010800575F0087D007E65
:10022400007F003392D530D50312035CEC334010C9
:10023400EF33FFEE33FEED33FDEC33FCD5F0ED226E
:0E024400E5F0247EA2D513CC92E7CDCEFF22AA
:10025200EDD2E7CD33EC3392D524814006E4FFFEA4
:10026200FDFC22FCE4CFCECDCC24E0501174FF8003
:10027200EDC3CC13CCCD13CDCE13CECF13CF0470A0
:07028200F030D5DE02035C41
:10028900E9D2E7C933E833F892D5EDD2E7CD33ECBB
:0702990033FC5002B2D52234
:1002A000EC30E7100FBF000C0EBE00080DBD0004BF
:1002B0000BEB6014A2D5EB13FCED92E7FD2274FF6B
:1002C000FCFDFEFF22E480F8A2D574FF13FC7D80C4
:0302D000E480EFD8
:03000000020406F1
:0C040600787FE4F6D8FD75812002044DDB
:1002D300C2D530F707B2D563F0FF05F030E70CB2B3
:1002E300D5F4048463F0FF05F080018430D502F473
:0202F3000422E3
:1002F500EF8DF0A4A8F0CF8CF0A428CE8DF0A42E1D
:02030500FE22D6
:10030700BC000BBE0029EF8DF084FFADF022E4CCDA
:10031700F875F008EF2FFFEE33FEEC33FCEE9DECA3
:10032700984005FCEE9DFE0FD5F0E9E4CEFD22EDE9
:10033700F8F5F0EE8420D21CFEADF075F008EF2F33
:10034700FFED33FD4007985006D5F0F222C398FD24
:050357000FD5F0EA22C1
:0E035C00C3E49FFFE49EFEE49DFDE49CFC22B2
:1004120002036AE493A3F8E493A34003F68001F293
:1004220008DFF48029E493A3F85407240CC8C333EB
:10043200C4540F4420C8834004F456800146F6DFBA
:10044200E4800B01020408102040809007FBE47E48
:10045200019360BCA3FF543F30E509541FFEE493AF
:10046200A360010ECF54C025E060A840B8E493A376
:10047200FAE493A3F8E493A3C8C582C8CAC583CAA1
:10048200F0A3C8C582C8CAC583CADFE9DEE780BE59
:0108070000F0
:00000001FF
